{
  "_format": "hh-sol-artifact-1",
  "contractName": "DashBoardTransactions",
  "sourceName": "contracts/DashBoardTransactions.sol",
  "abi": [
    {
      "anonymous": false,
      "inputs": [
        {
          "indexed": false,
          "internalType": "address",
          "name": "from",
          "type": "address"
        },
        {
          "indexed": false,
          "internalType": "address",
          "name": "receiver",
          "type": "address"
        },
        {
          "indexed": false,
          "internalType": "uint256",
          "name": "moneyOut",
          "type": "uint256"
        },
        {
          "indexed": false,
          "internalType": "string",
          "name": "moneyOutDescription",
          "type": "string"
        },
        {
          "indexed": false,
          "internalType": "uint256",
          "name": "timestamp",
          "type": "uint256"
        }
      ],
      "name": "TransferExpenses",
      "type": "event"
    },
    {
      "anonymous": false,
      "inputs": [
        {
          "indexed": false,
          "internalType": "uint256",
          "name": "moneyIn",
          "type": "uint256"
        },
        {
          "indexed": false,
          "internalType": "string",
          "name": "moneyInDescription",
          "type": "string"
        },
        {
          "indexed": false,
          "internalType": "uint256",
          "name": "timestamp",
          "type": "uint256"
        }
      ],
      "name": "TransferRecords",
      "type": "event"
    },
    {
      "anonymous": false,
      "inputs": [
        {
          "indexed": false,
          "internalType": "address",
          "name": "from",
          "type": "address"
        },
        {
          "indexed": false,
          "internalType": "address",
          "name": "receiver",
          "type": "address"
        },
        {
          "indexed": false,
          "internalType": "uint256",
          "name": "moneyOut",
          "type": "uint256"
        },
        {
          "indexed": false,
          "internalType": "string",
          "name": "staffName",
          "type": "string"
        },
        {
          "indexed": false,
          "internalType": "string",
          "name": "moneyOutDescription",
          "type": "string"
        },
        {
          "indexed": false,
          "internalType": "uint256",
          "name": "timestamp",
          "type": "uint256"
        }
      ],
      "name": "TransferStaff",
      "type": "event"
    },
    {
      "inputs": [
        {
          "internalType": "address payable",
          "name": "receiver",
          "type": "address"
        },
        {
          "internalType": "uint256",
          "name": "moneyOut",
          "type": "uint256"
        },
        {
          "internalType": "string",
          "name": "moneyOutDescription",
          "type": "string"
        }
      ],
      "name": "expenses_Transactions",
      "outputs": [],
      "stateMutability": "nonpayable",
      "type": "function"
    },
    {
      "inputs": [],
      "name": "getExpensesTransactions",
      "outputs": [
        {
          "components": [
            {
              "internalType": "address",
              "name": "sender",
              "type": "address"
            },
            {
              "internalType": "address",
              "name": "receiver",
              "type": "address"
            },
            {
              "internalType": "uint256",
              "name": "moneyOut",
              "type": "uint256"
            },
            {
              "internalType": "uint256",
              "name": "timestamp",
              "type": "uint256"
            },
            {
              "internalType": "string",
              "name": "moneyOutDescription",
              "type": "string"
            }
          ],
          "internalType": "struct DashBoardTransactions.Expenses[]",
          "name": "",
          "type": "tuple[]"
        }
      ],
      "stateMutability": "view",
      "type": "function"
    },
    {
      "inputs": [],
      "name": "getPayStaffTransactions",
      "outputs": [
        {
          "components": [
            {
              "internalType": "address",
              "name": "sender",
              "type": "address"
            },
            {
              "internalType": "address",
              "name": "receiver",
              "type": "address"
            },
            {
              "internalType": "uint256",
              "name": "moneyOut",
              "type": "uint256"
            },
            {
              "internalType": "string",
              "name": "staffName",
              "type": "string"
            },
            {
              "internalType": "uint256",
              "name": "timestamp",
              "type": "uint256"
            },
            {
              "internalType": "string",
              "name": "moneyOutDescription",
              "type": "string"
            }
          ],
          "internalType": "struct DashBoardTransactions.Staff[]",
          "name": "",
          "type": "tuple[]"
        }
      ],
      "stateMutability": "view",
      "type": "function"
    },
    {
      "inputs": [],
      "name": "getRecords",
      "outputs": [
        {
          "components": [
            {
              "internalType": "uint256",
              "name": "moneyIn",
              "type": "uint256"
            },
            {
              "internalType": "string",
              "name": "moneyInDescription",
              "type": "string"
            },
            {
              "internalType": "uint256",
              "name": "timestamp",
              "type": "uint256"
            }
          ],
          "internalType": "struct DashBoardTransactions.Record[]",
          "name": "",
          "type": "tuple[]"
        }
      ],
      "stateMutability": "view",
      "type": "function"
    },
    {
      "inputs": [
        {
          "internalType": "uint256",
          "name": "moneyIn",
          "type": "uint256"
        },
        {
          "internalType": "string",
          "name": "moneyInDescription",
          "type": "string"
        }
      ],
      "name": "record_transactions",
      "outputs": [],
      "stateMutability": "nonpayable",
      "type": "function"
    },
    {
      "inputs": [
        {
          "internalType": "address payable",
          "name": "receiver",
          "type": "address"
        },
        {
          "internalType": "uint256",
          "name": "moneyOut",
          "type": "uint256"
        },
        {
          "internalType": "string",
          "name": "staffName",
          "type": "string"
        },
        {
          "internalType": "string",
          "name": "moneyOutDescription",
          "type": "string"
        }
      ],
      "name": "staff_Payments",
      "outputs": [],
      "stateMutability": "nonpayable",
      "type": "function"
    }
  ],
  "bytecode": "0x608060405234801561001057600080fd5b5061150c806100206000396000f3fe608060405234801561001057600080fd5b50600436106100625760003560e01c806329023666146100675780632cda88bf146100855780636ca8f5c4146100a15780638eff3c29146100bf578063995c6a01146100dd5780639c672f2a146100f9575b600080fd5b61006f610115565b60405161007c9190610cda565b60405180910390f35b61009f600480360381019061009a9190610e71565b610358565b005b6100a9610410565b6040516100b69190611005565b60405180910390f35b6100c76105c1565b6040516100d49190611139565b60405180910390f35b6100f760048036038101906100f29190611199565b6106c6565b005b610113600480360381019061010e9190611238565b61086f565b005b60606000805480602002602001604051908101604052809291908181526020016000905b8282101561034f57838290600052602060002090600602016040518060c00160405290816000820160009054906101000a900473ffffffffffffffffffffffffffffffffffffffff1673ffffffffffffffffffffffffffffffffffffffff1673ffffffffffffffffffffffffffffffffffffffff1681526020016001820160009054906101000a900473ffffffffffffffffffffffffffffffffffffffff1673ffffffffffffffffffffffffffffffffffffffff1673ffffffffffffffffffffffffffffffffffffffff16815260200160028201548152602001600382018054610222906112d6565b80601f016020809104026020016040519081016040528092919081815260200182805461024e906112d6565b801561029b5780601f106102705761010080835404028352916020019161029b565b820191906000526020600020905b81548152906001019060200180831161027e57829003601f168201915b50505050508152602001600482015481526020016005820180546102be906112d6565b80601f01602080910402602001604051908101604052809291908181526020018280546102ea906112d6565b80156103375780601f1061030c57610100808354040283529160200191610337565b820191906000526020600020905b81548152906001019060200180831161031a57829003601f168201915b50505050508152505081526020019060010190610139565b50505050905090565b600260405180606001604052808481526020018381526020014281525090806001815401808255809150506001900390600052602060002090600302016000909190919091506000820151816000015560208201518160010190805190602001906103c49291906109f2565b506040820151816002015550507f82bc95346cda6563d3b6f6ff4b18969e407cd4e692a9831ff8f6488137cec19082824260405161040493929190611361565b60405180910390a15050565b60606001805480602002602001604051908101604052809291908181526020016000905b828210156105b857838290600052602060002090600502016040518060a00160405290816000820160009054906101000a900473ffffffffffffffffffffffffffffffffffffffff1673ffffffffffffffffffffffffffffffffffffffff1673ffffffffffffffffffffffffffffffffffffffff1681526020016001820160009054906101000a900473ffffffffffffffffffffffffffffffffffffffff1673ffffffffffffffffffffffffffffffffffffffff1673ffffffffffffffffffffffffffffffffffffffff1681526020016002820154815260200160038201548152602001600482018054610527906112d6565b80601f0160208091040260200160405190810160405280929190818152602001828054610553906112d6565b80156105a05780601f10610575576101008083540402835291602001916105a0565b820191906000526020600020905b81548152906001019060200180831161058357829003601f168201915b50505050508152505081526020019060010190610434565b50505050905090565b60606002805480602002602001604051908101604052809291908181526020016000905b828210156106bd578382906000526020600020906003020160405180606001604052908160008201548152602001600182018054610622906112d6565b80601f016020809104026020016040519081016040528092919081815260200182805461064e906112d6565b801561069b5780601f106106705761010080835404028352916020019161069b565b820191906000526020600020905b81548152906001019060200180831161067e57829003601f168201915b50505050508152602001600282015481525050815260200190600101906105e5565b50505050905090565b60006040518060c001604052803373ffffffffffffffffffffffffffffffffffffffff1681526020018673ffffffffffffffffffffffffffffffffffffffff16815260200185815260200184815260200142815260200183815250908060018154018082558091505060019003906000526020600020906006020160009091909190915060008201518160000160006101000a81548173ffffffffffffffffffffffffffffffffffffffff021916908373ffffffffffffffffffffffffffffffffffffffff16021790555060208201518160010160006101000a81548173ffffffffffffffffffffffffffffffffffffffff021916908373ffffffffffffffffffffffffffffffffffffffff1602179055506040820151816002015560608201518160030190805190602001906107fe9291906109f2565b506080820151816004015560a08201518160050190805190602001906108259291906109f2565b5050507f26e752e004c4077c63c2c12ba94fadd9c5fb53ca63a610702d6357b637d6399c3385858585426040516108619695949392919061140d565b60405180910390a150505050565b60016040518060a001604052803373ffffffffffffffffffffffffffffffffffffffff1681526020018573ffffffffffffffffffffffffffffffffffffffff16815260200184815260200142815260200183815250908060018154018082558091505060019003906000526020600020906005020160009091909190915060008201518160000160006101000a81548173ffffffffffffffffffffffffffffffffffffffff021916908373ffffffffffffffffffffffffffffffffffffffff16021790555060208201518160010160006101000a81548173ffffffffffffffffffffffffffffffffffffffff021916908373ffffffffffffffffffffffffffffffffffffffff160217905550604082015181600201556060820151816003015560808201518160040190805190602001906109ab9291906109f2565b5050507f5baa9d1c69bb19a322ec11cdc17b9914d9a5e2b5a467921fc93f0c3be04701a933848484426040516109e595949392919061147c565b60405180910390a1505050565b8280546109fe906112d6565b90600052602060002090601f016020900481019282610a205760008555610a67565b82601f10610a3957805160ff1916838001178555610a67565b82800160010185558215610a67579182015b82811115610a66578251825591602001919060010190610a4b565b5b509050610a749190610a78565b5090565b5b80821115610a91576000816000905550600101610a79565b5090565b600081519050919050565b600082825260208201905092915050565b6000819050602082019050919050565b600073ffffffffffffffffffffffffffffffffffffffff82169050919050565b6000610aec82610ac1565b9050919050565b610afc81610ae1565b82525050565b6000819050919050565b610b1581610b02565b82525050565b600081519050919050565b600082825260208201905092915050565b60005b83811015610b55578082015181840152602081019050610b3a565b83811115610b64576000848401525b50505050565b6000601f19601f8301169050919050565b6000610b8682610b1b565b610b908185610b26565b9350610ba0818560208601610b37565b610ba981610b6a565b840191505092915050565b600060c083016000830151610bcc6000860182610af3565b506020830151610bdf6020860182610af3565b506040830151610bf26040860182610b0c565b5060608301518482036060860152610c0a8282610b7b565b9150506080830151610c1f6080860182610b0c565b5060a083015184820360a0860152610c378282610b7b565b9150508091505092915050565b6000610c508383610bb4565b905092915050565b6000602082019050919050565b6000610c7082610a95565b610c7a8185610aa0565b935083602082028501610c8c85610ab1565b8060005b85811015610cc85784840389528151610ca98582610c44565b9450610cb483610c58565b925060208a01995050600181019050610c90565b50829750879550505050505092915050565b60006020820190508181036000830152610cf48184610c65565b905092915050565b6000604051905090565b600080fd5b600080fd5b610d1981610b02565b8114610d2457600080fd5b50565b600081359050610d3681610d10565b92915050565b600080fd5b600080fd5b7f4e487b7100000000000000000000000000000000000000000000000000000000600052604160045260246000fd5b610d7e82610b6a565b810181811067ffffffffffffffff82111715610d9d57610d9c610d46565b5b80604052505050565b6000610db0610cfc565b9050610dbc8282610d75565b919050565b600067ffffffffffffffff821115610ddc57610ddb610d46565b5b610de582610b6a565b9050602081019050919050565b82818337600083830152505050565b6000610e14610e0f84610dc1565b610da6565b905082815260208101848484011115610e3057610e2f610d41565b5b610e3b848285610df2565b509392505050565b600082601f830112610e5857610e57610d3c565b5b8135610e68848260208601610e01565b91505092915050565b60008060408385031215610e8857610e87610d06565b5b6000610e9685828601610d27565b925050602083013567ffffffffffffffff811115610eb757610eb6610d0b565b5b610ec385828601610e43565b9150509250929050565b600081519050919050565b600082825260208201905092915050565b6000819050602082019050919050565b600060a083016000830151610f116000860182610af3565b506020830151610f246020860182610af3565b506040830151610f376040860182610b0c565b506060830151610f4a6060860182610b0c565b5060808301518482036080860152610f628282610b7b565b9150508091505092915050565b6000610f7b8383610ef9565b905092915050565b6000602082019050919050565b6000610f9b82610ecd565b610fa58185610ed8565b935083602082028501610fb785610ee9565b8060005b85811015610ff35784840389528151610fd48582610f6f565b9450610fdf83610f83565b925060208a01995050600181019050610fbb565b50829750879550505050505092915050565b6000602082019050818103600083015261101f8184610f90565b905092915050565b600081519050919050565b600082825260208201905092915050565b6000819050602082019050919050565b600060608301600083015161106b6000860182610b0c565b50602083015184820360208601526110838282610b7b565b91505060408301516110986040860182610b0c565b508091505092915050565b60006110af8383611053565b905092915050565b6000602082019050919050565b60006110cf82611027565b6110d98185611032565b9350836020820285016110eb85611043565b8060005b85811015611127578484038952815161110885826110a3565b9450611113836110b7565b925060208a019950506001810190506110ef565b50829750879550505050505092915050565b6000602082019050818103600083015261115381846110c4565b905092915050565b600061116682610ac1565b9050919050565b6111768161115b565b811461118157600080fd5b50565b6000813590506111938161116d565b92915050565b600080600080608085870312156111b3576111b2610d06565b5b60006111c187828801611184565b94505060206111d287828801610d27565b935050604085013567ffffffffffffffff8111156111f3576111f2610d0b565b5b6111ff87828801610e43565b925050606085013567ffffffffffffffff8111156112205761121f610d0b565b5b61122c87828801610e43565b91505092959194509250565b60008060006060848603121561125157611250610d06565b5b600061125f86828701611184565b935050602061127086828701610d27565b925050604084013567ffffffffffffffff81111561129157611290610d0b565b5b61129d86828701610e43565b9150509250925092565b7f4e487b7100000000000000000000000000000000000000000000000000000000600052602260045260246000fd5b600060028204905060018216806112ee57607f821691505b60208210811415611302576113016112a7565b5b50919050565b61131181610b02565b82525050565b600082825260208201905092915050565b600061133382610b1b565b61133d8185611317565b935061134d818560208601610b37565b61135681610b6a565b840191505092915050565b60006060820190506113766000830186611308565b81810360208301526113888185611328565b90506113976040830184611308565b949350505050565b6113a881610ae1565b82525050565b6000819050919050565b60006113d36113ce6113c984610ac1565b6113ae565b610ac1565b9050919050565b60006113e5826113b8565b9050919050565b60006113f7826113da565b9050919050565b611407816113ec565b82525050565b600060c082019050611422600083018961139f565b61142f60208301886113fe565b61143c6040830187611308565b818103606083015261144e8186611328565b905081810360808301526114628185611328565b905061147160a0830184611308565b979650505050505050565b600060a082019050611491600083018861139f565b61149e60208301876113fe565b6114ab6040830186611308565b81810360608301526114bd8185611328565b90506114cc6080830184611308565b969550505050505056fea2646970667358221220b61ddf7e10543c54f85b7c551588d95c2940758276edaed727984d3b6d5faefe64736f6c63430008090033",
  "linkReferences": {},
  "deployedLinkReferences": {}
}